{
  "address": "0x2A08a865e3e9667e58abFCCfDee2689CBF38d320",
  "abi": [
    {
      "inputs": [
        {
          "internalType": "uint256",
          "name": "_chainId",
          "type": "uint256"
        }
      ],
      "stateMutability": "nonpayable",
      "type": "constructor"
    },
    {
      "inputs": [],
      "name": "CantFund",
      "type": "error"
    },
    {
      "anonymous": false,
      "inputs": [
        {
          "indexed": true,
          "internalType": "address",
          "name": "walletAddress",
          "type": "address"
        },
        {
          "indexed": true,
          "internalType": "address",
          "name": "creator",
          "type": "address"
        }
      ],
      "name": "MultiSigWalletCreated",
      "type": "event"
    },
    {
      "inputs": [],
      "name": "CHAIN_ID",
      "outputs": [
        {
          "internalType": "uint256",
          "name": "",
          "type": "uint256"
        }
      ],
      "stateMutability": "view",
      "type": "function"
    },
    {
      "inputs": [
        {
          "internalType": "address[]",
          "name": "_owners",
          "type": "address[]"
        },
        {
          "internalType": "uint256",
          "name": "_signaturesRequired",
          "type": "uint256"
        }
      ],
      "name": "createMultiSig",
      "outputs": [
        {
          "internalType": "address",
          "name": "",
          "type": "address"
        }
      ],
      "stateMutability": "nonpayable",
      "type": "function"
    },
    {
      "inputs": [
        {
          "internalType": "address",
          "name": "_owner",
          "type": "address"
        }
      ],
      "name": "getOwnedMultiSigs",
      "outputs": [
        {
          "internalType": "address[]",
          "name": "",
          "type": "address[]"
        }
      ],
      "stateMutability": "view",
      "type": "function"
    },
    {
      "inputs": [
        {
          "internalType": "uint256",
          "name": "",
          "type": "uint256"
        }
      ],
      "name": "mmswArray",
      "outputs": [
        {
          "internalType": "contract MetaMultiSigWallet",
          "name": "",
          "type": "address"
        }
      ],
      "stateMutability": "view",
      "type": "function"
    },
    {
      "stateMutability": "payable",
      "type": "receive"
    }
  ],
  "transactionHash": "0xc86e5c989ac5c117c0ca4931712f024dfea3c24ac95345aa2dac20f81f0c68c1",
  "args": [
    31337
  ],
  "numDeployments": 2,
  "solcInputHash": "e38dc711ab907fbfc084579fd4861f75",
  "bytecode": "0x60a060405234801561001057600080fd5b5060405161241838038061241883398101604081905261002f91610037565b608052610050565b60006020828403121561004957600080fd5b5051919050565b6080516123a7610071600039600081816069015261043501526123a76000f3fe608060405260043610620000485760003560e01c806385e1f4d014620000555780638be5a018146200009e578063d46a09f114620000d2578063f43a8637146200011057600080fd5b366200005057005b600080fd5b3480156200006257600080fd5b506200008b7f000000000000000000000000000000000000000000000000000000000000000081565b6040519081526020015b60405180910390f35b348015620000ab57600080fd5b50620000c3620000bd3660046200060c565b62000135565b60405162000095919062000677565b348015620000df57600080fd5b50620000f7620000f1366004620006a2565b62000369565b6040516001600160a01b03909116815260200162000095565b3480156200011d57600080fd5b50620000f76200012f3660046200077b565b62000522565b600080546060919067ffffffffffffffff8111156200015857620001586200068c565b60405190808252806020026020018201604052801562000182578160200160208202803683370190505b5090506000805b600054811015620002ab5760008181548110620001aa57620001aa62000795565b6000918252602090912001546040516317aa5fb760e11b81526001600160a01b03878116600483015290911690632f54bf6e90602401602060405180830381865afa158015620001fe573d6000803e3d6000fd5b505050506040513d601f19601f82011682018060405250810190620002249190620007ab565b1562000298576000818154811062000240576200024062000795565b6000918252602090912001546001600160a01b031683836200026281620007cf565b94508151811062000277576200027762000795565b60200260200101906001600160a01b031690816001600160a01b0316815250505b620002a381620007cf565b905062000189565b5060008167ffffffffffffffff811115620002ca57620002ca6200068c565b604051908082528060200260200182016040528015620002f4578160200160208202803683370190505b50905060005b82811015620003605783818151811062000318576200031862000795565b602002602001015182828151811062000335576200033562000795565b6001600160a01b03909216602092830291909101909101526200035881620007cf565b9050620002fa565b50949350505050565b600080835111620003c15760405162461bcd60e51b815260206004820152601d60248201527f6372656174654d756c74695369673a206d696e206f6e65206f776e657200000060448201526064015b60405180910390fd5b600082118015620003d3575082518211155b620004315760405162461bcd60e51b815260206004820152602760248201527f6372656174654d756c74695369673a20696e76616c69642023206f66207369676044820152666e61747572657360c81b6064820152608401620003b8565b60007f000000000000000000000000000000000000000000000000000000000000000084846040516200046490620005e1565b6200047293929190620007f7565b604051809103906000f0801580156200048f573d6000803e3d6000fd5b50600080546001810182559080527f290decd9548b62a8d60345a988386fc84ba6bc95484008f6362f93160ef3e5630180546001600160a01b0319166001600160a01b0383161790559050620004e5816200054d565b60405133906001600160a01b038316907fbcff67f623bc915e136d6946628d56d8e7f2dd7c1db41f571852c726627dd57b90600090a39392505050565b600081815481106200053357600080fd5b6000918252602090912001546001600160a01b0316905081565b67016345785d8a00004710620005de576000816001600160a01b031667016345785d8a000060405160006040518083038185875af1925050503d8060008114620005b4576040519150601f19603f3d011682016040523d82523d6000602084013e620005b9565b606091505b5050905080620005dc5760405163bfb356bb60e01b815260040160405180910390fd5b505b50565b611b4f806200082383390190565b80356001600160a01b03811681146200060757600080fd5b919050565b6000602082840312156200061f57600080fd5b6200062a82620005ef565b9392505050565b600081518084526020808501945080840160005b838110156200066c5781516001600160a01b03168752958201959082019060010162000645565b509495945050505050565b6020815260006200062a602083018462000631565b634e487b7160e01b600052604160045260246000fd5b60008060408385031215620006b657600080fd5b823567ffffffffffffffff80821115620006cf57600080fd5b818501915085601f830112620006e457600080fd5b8135602082821115620006fb57620006fb6200068c565b8160051b604051601f19603f830116810181811086821117156200072357620007236200068c565b6040529283528183019350848101820192898411156200074257600080fd5b948201945b838610156200076b576200075b86620005ef565b8552948201949382019362000747565b9997909101359750505050505050565b6000602082840312156200078e57600080fd5b5035919050565b634e487b7160e01b600052603260045260246000fd5b600060208284031215620007be57600080fd5b815180151581146200062a57600080fd5b600060018201620007f057634e487b7160e01b600052601160045260246000fd5b5060010190565b83815260606020820152600062000812606083018562000631565b905082604083015294935050505056fe60806040523480156200001157600080fd5b5060405162001b4f38038062001b4f83398101604081905262000034916200024d565b600081116200009e5760405162461bcd60e51b815260206004820152602b60248201527f636f6e7374727563746f723a206d757374206265206e6f6e2d7a65726f20736960448201526a19dcc81c995c5d5a5c995960aa1b60648201526084015b60405180910390fd5b600181905560005b82518110156200020e576000838281518110620000c757620000c762000336565b6020026020010151905060006001600160a01b0316816001600160a01b031603620001355760405162461bcd60e51b815260206004820152601960248201527f636f6e7374727563746f723a207a65726f206164647265737300000000000000604482015260640162000095565b6001600160a01b03811660009081526020819052604090205460ff1615620001a05760405162461bcd60e51b815260206004820152601d60248201527f636f6e7374727563746f723a206f776e6572206e6f7420756e69717565000000604482015260640162000095565b6001600160a01b03811660008181526020818152604091829020805460ff1916600190811790915591519182527ffe545f48304051c4029eb2da9927daa59da0414b4b084fdceaf2955b609b899e910160405180910390a2508062000205816200034c565b915050620000a6565b50505060035562000374565b634e487b7160e01b600052604160045260246000fd5b80516001600160a01b03811681146200024857600080fd5b919050565b6000806000606084860312156200026357600080fd5b8351602080860151919450906001600160401b03808211156200028557600080fd5b818701915087601f8301126200029a57600080fd5b815181811115620002af57620002af6200021a565b8060051b604051601f19603f83011681018181108582111715620002d757620002d76200021a565b60405291825284820192508381018501918a831115620002f657600080fd5b938501935b828510156200031f576200030f8562000230565b84529385019392850192620002fb565b809750505050505050604084015190509250925092565b634e487b7160e01b600052603260045260246000fd5b6000600182016200036d57634e487b7160e01b600052601160045260246000fd5b5060010190565b6117cb80620003846000396000f3fe6080604052600436106100ec5760003560e01c8063836992751161008a578063ce757d2911610059578063ce757d2914610302578063d1fbffa014610318578063de4b9e9314610345578063e0a2ff541461036557600080fd5b8063836992751461025f5780639a8a0592146102b6578063a8397ddc146102cc578063affed0e0146102ec57600080fd5b80633034a742116100c65780633034a742146101d15780633bad5426146101f1578063545a4a3c1461021157806365af1bed1461023f57600080fd5b806319045a25146101325780632a387d5d1461016f5780632f54bf6e1461019157600080fd5b3661012d576040805134815247602082015233917f90890809c654f11d6e72a28fa60149770a0d11ec6c92319d6ceb2bb0a4ea1a15910160405180910390a2005b600080fd5b34801561013e57600080fd5b5061015261014d3660046112ba565b610385565b6040516001600160a01b0390911681526020015b60405180910390f35b34801561017b57600080fd5b5061018f61018a366004611316565b6103c7565b005b34801561019d57600080fd5b506101c16101ac36600461134b565b60006020819052908152604090205460ff1681565b6040519015158152602001610166565b3480156101dd57600080fd5b5061018f6101ec36600461136f565b610555565b3480156101fd57600080fd5b5061018f61020c366004611388565b6105ef565b34801561021d57600080fd5b5061023161022c3660046113b4565b61073e565b604051908152602001610166565b34801561024b57600080fd5b5061018f61025a366004611388565b61077d565b34801561026b57600080fd5b5061029b61027a36600461134b565b60046020526000908152604090208054600182015460029092015490919083565b60408051938452602084019290925290820152606001610166565b3480156102c257600080fd5b5061023160035481565b3480156102d857600080fd5b5061018f6102e7366004611417565b61091b565b3480156102f857600080fd5b5061023160025481565b34801561030e57600080fd5b5061023160015481565b34801561032457600080fd5b50610338610333366004611468565b610986565b60405161016691906115bc565b34801561035157600080fd5b5061018f61036036600461134b565b610ca0565b34801561037157600080fd5b5061023161038036600461134b565b610dd8565b7f19457468657265756d205369676e6564204d6573736167653a0a3332000000006000908152601c839052603c81206103be9083610e32565b90505b92915050565b3330146103ef5760405162461bcd60e51b81526004016103e6906115cf565b60405180910390fd5b6001600160a01b038316600090815260046020526040902054156104555760405162461bcd60e51b815260206004820152601f60248201527f6f70656e53747265616d3a2073747265616d20616c7265616479206f70656e0060448201526064016103e6565b6000821161049d5760405162461bcd60e51b81526020600482015260156024820152741bdc195b94dd1c99585b4e881b9bc8185b5bdd5b9d605a1b60448201526064016103e6565b600081116104ed5760405162461bcd60e51b815260206004820152601860248201527f6f70656e53747265616d3a206e6f206672657175656e6379000000000000000060448201526064016103e6565b6001600160a01b038316600081815260046020908152604091829020858155600181018590554260029091015581518581529081018490527f81236f9eb471668cf00861415085dace409d719678881c59b03e49683bbef716910160405180910390a2505050565b3330146105745760405162461bcd60e51b81526004016103e6906115cf565b600081116105ea5760405162461bcd60e51b815260206004820152603860248201527f7570646174655369676e61747572657352657175697265643a206d757374206260448201527f65206e6f6e2d7a65726f2073696773207265717569726564000000000000000060648201526084016103e6565b600155565b33301461060e5760405162461bcd60e51b81526004016103e6906115cf565b6001600160a01b03821660009081526020819052604090205460ff166106765760405162461bcd60e51b815260206004820152601760248201527f72656d6f76655369676e65723a206e6f74206f776e657200000000000000000060448201526064016103e6565b600081116106db5760405162461bcd60e51b815260206004820152602c60248201527f72656d6f76655369676e65723a206d757374206265206e6f6e2d7a65726f207360448201526b1a59dcc81c995c5d5a5c995960a21b60648201526084016103e6565b6001600160a01b03821660008181526020818152604091829020805460ff19168155600185905554915160ff909216151582527ffe545f48304051c4029eb2da9927daa59da0414b4b084fdceaf2955b609b899e91015b60405180910390a25050565b6000306003548686868660405160200161075d969594939291906115f1565b604051602081830303815290604052805190602001209050949350505050565b33301461079c5760405162461bcd60e51b81526004016103e6906115cf565b6001600160a01b0382166107f25760405162461bcd60e51b815260206004820152601760248201527f6164645369676e65723a207a65726f206164647265737300000000000000000060448201526064016103e6565b6001600160a01b03821660009081526020819052604090205460ff161561085b5760405162461bcd60e51b815260206004820152601b60248201527f6164645369676e65723a206f776e6572206e6f7420756e69717565000000000060448201526064016103e6565b600081116108bd5760405162461bcd60e51b815260206004820152602960248201527f6164645369676e65723a206d757374206265206e6f6e2d7a65726f2073696773604482015268081c995c5d5a5c995960ba1b60648201526084016103e6565b6001600160a01b03821660008181526020818152604091829020805460ff19166001908117825585905554915160ff909216151582527ffe545f48304051c4029eb2da9927daa59da0414b4b084fdceaf2955b609b899e9101610732565b336000908152600460205260409020546109775760405162461bcd60e51b815260206004820152601860248201527f77697468647261773a206e6f206f70656e2073747265616d000000000000000060448201526064016103e6565b610982338383610e56565b5050565b3360009081526020819052604090205460609060ff166109fc5760405162461bcd60e51b815260206004820152602b60248201527f657865637574655472616e73616374696f6e3a206f6e6c79206f776e6572732060448201526a63616e206578656375746560a81b60648201526084016103e6565b6000610a0c60025487878761073e565b600280549192506000610a1e83611662565b919050555060008060005b8551811015610b1f576000610a5785888481518110610a4a57610a4a61167b565b6020026020010151610385565b9050826001600160a01b0316816001600160a01b031611610ad85760405162461bcd60e51b815260206004820152603560248201527f657865637574655472616e73616374696f6e3a206475706c6963617465206f7260448201527420756e6f726465726564207369676e61747572657360581b60648201526084016103e6565b6001600160a01b038116600090815260208190526040902054909250829060ff1615610b0c5783610b0881611662565b9450505b5080610b1781611662565b915050610a29565b50600154821015610b8a5760405162461bcd60e51b815260206004820152602f60248201527f657865637574655472616e73616374696f6e3a206e6f7420656e6f756768207660448201526e616c6964207369676e61747572657360881b60648201526084016103e6565b600080896001600160a01b03168989604051610ba69190611691565b60006040518083038185875af1925050503d8060008114610be3576040519150601f19603f3d011682016040523d82523d6000602084013e610be8565b606091505b509150915081610c3a5760405162461bcd60e51b815260206004820152601d60248201527f657865637574655472616e73616374696f6e3a207478206661696c656400000060448201526064016103e6565b336001600160a01b03167f9053e9ec105157fac8c9308d63e6b22be5f50fe915a3e567419b624311a02d748b8b8b6001600254610c7791906116ad565b8a87604051610c8b969594939291906116c0565b60405180910390a29998505050505050505050565b333014610cbf5760405162461bcd60e51b81526004016103e6906115cf565b6001600160a01b038116600090815260046020526040902054610d2f5760405162461bcd60e51b815260206004820152602260248201527f636c6f736553747265616d3a2073747265616d20616c726561647920636c6f73604482015261195960f21b60648201526084016103e6565b610d878160046000846001600160a01b03166001600160a01b03168152602001908152602001600020600001546040518060400160405280600d81526020016c1cdd1c99585b4818db1bdcd959609a1b815250610e56565b6001600160a01b03811660008181526004602052604080822082815560018101839055600201829055517fcc362a45d32c94d02a329570bd5935709d77f6dc79ac6afa5107b513642461c29190a250565b6001600160a01b03811660009081526004602052604081206001810154600290910154610e0590426116ad565b6001600160a01b038416600090815260046020526040902054610e289190611712565b6103c19190611729565b6000806000610e418585610fa5565b91509150610e4e81610fea565b509392505050565b6000610e6184610dd8565b905082811015610eaa5760405162461bcd60e51b81526020600482015260146024820152730eed2e8d0c8e4c2ee7440dcdee840cadcdeeaced60631b60448201526064016103e6565b6001600160a01b03841660009081526004602052604090206002015481908490610ed490426116ad565b610ede9190611712565b610ee89190611729565b6001600160a01b038516600090815260046020526040902060020154610f0e919061174b565b6001600160a01b038516600081815260046020526040908190206002019290925590517f485f1bb6524c663555797e00171a10f341656e59b02d6b557a0a38ba7d5d975190610f60908690869061175e565b60405180910390a26040516001600160a01b0385169084156108fc029085906000818181858888f19350505050158015610f9e573d6000803e3d6000fd5b5050505050565b6000808251604103610fdb5760208301516040840151606085015160001a610fcf87828585611137565b94509450505050610fe3565b506000905060025b9250929050565b6000816004811115610ffe57610ffe61177f565b036110065750565b600181600481111561101a5761101a61177f565b036110675760405162461bcd60e51b815260206004820152601860248201527f45434453413a20696e76616c6964207369676e6174757265000000000000000060448201526064016103e6565b600281600481111561107b5761107b61177f565b036110c85760405162461bcd60e51b815260206004820152601f60248201527f45434453413a20696e76616c6964207369676e6174757265206c656e6774680060448201526064016103e6565b60038160048111156110dc576110dc61177f565b036111345760405162461bcd60e51b815260206004820152602260248201527f45434453413a20696e76616c6964207369676e6174757265202773272076616c604482015261756560f01b60648201526084016103e6565b50565b6000807f7fffffffffffffffffffffffffffffff5d576e7357a4501ddfe92f46681b20a083111561116e57506000905060036111f2565b6040805160008082526020820180845289905260ff881692820192909252606081018690526080810185905260019060a0016020604051602081039080840390855afa1580156111c2573d6000803e3d6000fd5b5050604051601f1901519150506001600160a01b0381166111eb576000600192509250506111f2565b9150600090505b94509492505050565b634e487b7160e01b600052604160045260246000fd5b604051601f8201601f1916810167ffffffffffffffff8111828210171561123a5761123a6111fb565b604052919050565b600067ffffffffffffffff83111561125c5761125c6111fb565b61126f601f8401601f1916602001611211565b905082815283838301111561128357600080fd5b828260208301376000602084830101529392505050565b600082601f8301126112ab57600080fd5b6103be83833560208501611242565b600080604083850312156112cd57600080fd5b82359150602083013567ffffffffffffffff8111156112eb57600080fd5b6112f78582860161129a565b9150509250929050565b6001600160a01b038116811461113457600080fd5b60008060006060848603121561132b57600080fd5b833561133681611301565b95602085013595506040909401359392505050565b60006020828403121561135d57600080fd5b813561136881611301565b9392505050565b60006020828403121561138157600080fd5b5035919050565b6000806040838503121561139b57600080fd5b82356113a681611301565b946020939093013593505050565b600080600080608085870312156113ca57600080fd5b8435935060208501356113dc81611301565b925060408501359150606085013567ffffffffffffffff8111156113ff57600080fd5b61140b8782880161129a565b91505092959194509250565b6000806040838503121561142a57600080fd5b82359150602083013567ffffffffffffffff81111561144857600080fd5b8301601f8101851361145957600080fd5b6112f785823560208401611242565b6000806000806080858703121561147e57600080fd5b843561148981611301565b93506020858101359350604086013567ffffffffffffffff808211156114ae57600080fd5b6114ba89838a0161129a565b945060608801359150808211156114d057600080fd5b818801915088601f8301126114e457600080fd5b8135818111156114f6576114f66111fb565b8060051b611505858201611211565b918252838101850191858101908c84111561151f57600080fd5b86860192505b8383101561155b5782358581111561153d5760008081fd5b61154b8e89838a010161129a565b8352509186019190860190611525565b999c989b5096995050505050505050565b60005b8381101561158757818101518382015260200161156f565b50506000910152565b600081518084526115a881602086016020860161156c565b601f01601f19169290920160200192915050565b6020815260006103be6020830184611590565b6020808252600890820152672737ba1029b2b63360c11b604082015260600190565b60006bffffffffffffffffffffffff19808960601b168352876014840152866034840152808660601b16605484015250836068830152825161163a81608885016020870161156c565b91909101608801979650505050505050565b634e487b7160e01b600052601160045260246000fd5b6000600182016116745761167461164c565b5060010190565b634e487b7160e01b600052603260045260246000fd5b600082516116a381846020870161156c565b9190910192915050565b818103818111156103c1576103c161164c565b60018060a01b038716815285602082015260c0604082015260006116e760c0830187611590565b85606084015284608084015282810360a08401526117058185611590565b9998505050505050505050565b80820281158282048414176103c1576103c161164c565b60008261174657634e487b7160e01b600052601260045260246000fd5b500490565b808201808211156103c1576103c161164c565b8281526040602082015260006117776040830184611590565b949350505050565b634e487b7160e01b600052602160045260246000fdfea26469706673582212201e84cacdcb1ec3fc4c0963ab5426a57912f7a96f813d56c9ef0191e7e49ef1ae64736f6c63430008110033a264697066735822122058cf3ff8bc5ad5dc7202d09b2a9cc79ad8e5fdc91ac42963da398793d6f8863864736f6c63430008110033",
  "devdoc": {
    "kind": "dev",
    "methods": {},
    "version": 1
  },
  "userdoc": {
    "kind": "user",
    "methods": {},
    "version": 1
  },
  "storageLayout": {
    "storage": [
      {
        "astId": 1572,
        "contract": "contracts/FactoryMultiSig.sol:FactoryMultiSig",
        "label": "mmswArray",
        "offset": 0,
        "slot": "0",
        "type": "t_array(t_contract(MetaMultiSigWallet)2467)dyn_storage"
      }
    ],
    "types": {
      "t_array(t_contract(MetaMultiSigWallet)2467)dyn_storage": {
        "base": "t_contract(MetaMultiSigWallet)2467",
        "encoding": "dynamic_array",
        "label": "contract MetaMultiSigWallet[]",
        "numberOfBytes": "32"
      },
      "t_contract(MetaMultiSigWallet)2467": {
        "encoding": "inplace",
        "label": "contract MetaMultiSigWallet",
        "numberOfBytes": "20"
      }
    }
  }
}